:100000000C942A000C943F000C943F000C943F0089
:100010000C943F000C943F000C943F000C943F0064
:100020000C943F000C943F000C943F000C943F0054
:100030000C943F000C943F000C943F000C943F0044
:100040000C943F000C943F000C943F000C943F0034
:100050000C943F0011241FBECFE5D8E0DEBFCDBF1A
:1000600010E0A0E6B0E0EAEDF4E002C005900D92E9
:10007000AE36B107D9F70E94F2010C946B020C94D2
:10008000000040E060E082E00E94B10040E061E0FA
:1000900082E00E94B10041E062E082E00C94B10095
:1000A00040E060E082E00E94B10041E061E082E077
:1000B0000E94B10040E062E082E00C94B10041E0B7
:1000C00060E082E00E94B10040E061E082E00E94D6
:1000D000B10040E062E082E00C94B100843030F581
:1000E000683020F5442319F0413009F1089521E0EA
:1000F00030E0A90102C0440F551F6A95E2F7BA012A
:100100006095823061F0833071F0813021F08AB3E4
:1001100086238ABB089587B3862387BB089584B35B
:10012000862384BB089581B3862381BB089521E093
:1001300030E0A90102C0440F551F6A95E2F78230F2
:1001400051F0833059F0813019F08AB3842BE1CF1C
:1001500087B3842BE2CF84B3842BE3CF81B3842B8A
:10016000E4CF843030F5683020F5442319F0413075
:1001700009F1089521E030E0A90102C0440F551FA4
:100180006A95E2F7BA016095823061F0833071F0D0
:10019000813021F08BB386238BBB089588B38623EF
:1001A00088BB089585B3862385BB089582B38623D3
:1001B00082BB089521E030E0A90102C0440F551F21
:1001C0006A95E2F7823051F0833059F0813019F0AE
:1001D0008BB3842BE1CF88B3842BE2CF85B3842B00
:1001E000E3CF82B3842BE4CF8430A0F4683090F462
:1001F00021E030E0A90102C0440F551F6A95E2F7E3
:10020000BA01823059F0833059F0813029F089B336
:10021000982F9623892F089586B3FACF83B3F8CF0A
:1002200080B3F6CF8430F8F46830E8F421E030E0B1
:10023000A90102C0440F551F6A95E2F7823061F0B0
:10024000833071F0813021F08BB384278BBB08950C
:1002500088B3842788BB089585B3842785BB089518
:1002600082B3842782BB0895843020F5662319F079
:10027000613079F00895823041F0833041F081306F
:1002800011F01ABA089517BA089514BA089511BA58
:100290000895823051F0833059F0813019F08FEF9A
:1002A0008ABB08958FEF87BB08958FEF84BB0895B5
:1002B0008FEF81BB0895843068F4823041F0833041
:1002C00041F0813011F06BBB089568BB089565BBA8
:1002D000089562BB0895843038F4823049F0833049
:1002E00049F0813019F099B3892F089596B3FCCF66
:1002F00093B3FACF90B3F8CF8430A8F4823061F092
:10030000833071F0813021F08BB380958BBB0895E1
:1003100088B3809588BB089585B3809585BB089583
:1003200082B3809582BB0895823069F030F48111E8
:1003300007C061E080E00C943401833039F0089507
:1003400061E081E0F8CF61E082E0F5CF61E083E039
:10035000F2CFE42F662319F0613019F1089582304D
:10036000A1F050F450E081110AC0405A5F4FFA01E9
:10037000608180E00C945B01833069F00895405AFD
:100380005F4FFA01608181E0F5CFF0E0E05AFF4F66
:10039000608182E0EFCFF0E0E05AFF4F608183E0C0
:1003A000E9CF823099F048F450E0811109C0405AF9
:1003B0005F4FFA0160816095DCCF833069F008956A
:1003C000405A5F4FFA0160816095DDCFF0E0E05A5E
:1003D000FF4F60816095DDCFF0E0E05AFF4F608114
:1003E0006095DDCF80E00E94940181E00E9494013D
:1003F00041E060E082E00E946E0041E061E082E066
:100400000E946E0041E062E082E00E946E000E9465
:100410005F0041E060E080E00E94A90140E060E010
:1004200081E00E94A901CAE0D0E02FE58CEC95E0C4
:10043000215080409040E1F700C0000021972097B4
:1004400059F040E060E080E00E94A9014C2F60E09C
:1004500081E00E94A901E9CF0E945000C3E040E082
:1004600060E080E00E94A9014C2F60E081E00E94E2
:10047000A9012FE58CEC95E0215080409040E1F7F8
:1004800000C00000C150C111EACF0E94410041E00C
:1004900060E080E00E94A90140E060E081E00E940D
:1004A000A901CAE0D0E02FE58CEC95E02150804016
:1004B0009040E1F700C000002197209709F4A7CFF2
:1004C00040E060E080E00E94A9014C2F60E081E004
:0A04D0000E94A901E8CFF894FFCFC5
:0E04DA00C0F9A4B0999282F88090E0FD1C0059
:00000001FF
